{
  "contractName": "DAO",
  "abi": [
    {
      "inputs": [
        {
          "internalType": "address",
          "name": "_admin",
          "type": "address"
        },
        {
          "internalType": "address",
          "name": "_token",
          "type": "address"
        },
        {
          "internalType": "uint256",
          "name": "_minTokens",
          "type": "uint256"
        }
      ],
      "stateMutability": "nonpayable",
      "type": "constructor"
    },
    {
      "anonymous": false,
      "inputs": [
        {
          "indexed": true,
          "internalType": "address",
          "name": "member",
          "type": "address"
        }
      ],
      "name": "MemberAdded",
      "type": "event"
    },
    {
      "anonymous": false,
      "inputs": [
        {
          "indexed": true,
          "internalType": "uint256",
          "name": "id",
          "type": "uint256"
        }
      ],
      "name": "ProposalExecuted",
      "type": "event"
    },
    {
      "anonymous": false,
      "inputs": [
        {
          "indexed": true,
          "internalType": "uint256",
          "name": "id",
          "type": "uint256"
        },
        {
          "indexed": true,
          "internalType": "address",
          "name": "proposer",
          "type": "address"
        },
        {
          "indexed": false,
          "internalType": "string",
          "name": "description",
          "type": "string"
        }
      ],
      "name": "ProposalSubmitted",
      "type": "event"
    },
    {
      "anonymous": false,
      "inputs": [
        {
          "indexed": true,
          "internalType": "uint256",
          "name": "id",
          "type": "uint256"
        },
        {
          "indexed": true,
          "internalType": "address",
          "name": "voter",
          "type": "address"
        },
        {
          "indexed": false,
          "internalType": "bool",
          "name": "inSupport",
          "type": "bool"
        }
      ],
      "name": "Voted",
      "type": "event"
    },
    {
      "inputs": [],
      "name": "admin",
      "outputs": [
        {
          "internalType": "address",
          "name": "",
          "type": "address"
        }
      ],
      "stateMutability": "view",
      "type": "function"
    },
    {
      "inputs": [
        {
          "internalType": "address",
          "name": "",
          "type": "address"
        }
      ],
      "name": "members",
      "outputs": [
        {
          "internalType": "bool",
          "name": "",
          "type": "bool"
        }
      ],
      "stateMutability": "view",
      "type": "function"
    },
    {
      "inputs": [],
      "name": "minTokens",
      "outputs": [
        {
          "internalType": "uint256",
          "name": "",
          "type": "uint256"
        }
      ],
      "stateMutability": "view",
      "type": "function"
    },
    {
      "inputs": [],
      "name": "proposalCounter",
      "outputs": [
        {
          "internalType": "uint256",
          "name": "",
          "type": "uint256"
        }
      ],
      "stateMutability": "view",
      "type": "function"
    },
    {
      "inputs": [
        {
          "internalType": "uint256",
          "name": "",
          "type": "uint256"
        }
      ],
      "name": "proposals",
      "outputs": [
        {
          "internalType": "address",
          "name": "proposer",
          "type": "address"
        },
        {
          "internalType": "string",
          "name": "description",
          "type": "string"
        },
        {
          "internalType": "uint256",
          "name": "votesFor",
          "type": "uint256"
        },
        {
          "internalType": "uint256",
          "name": "votesAgainst",
          "type": "uint256"
        },
        {
          "internalType": "bool",
          "name": "executed",
          "type": "bool"
        }
      ],
      "stateMutability": "view",
      "type": "function"
    },
    {
      "inputs": [],
      "name": "token",
      "outputs": [
        {
          "internalType": "address",
          "name": "",
          "type": "address"
        }
      ],
      "stateMutability": "view",
      "type": "function"
    },
    {
      "inputs": [
        {
          "internalType": "address",
          "name": "member",
          "type": "address"
        }
      ],
      "name": "addMember",
      "outputs": [],
      "stateMutability": "nonpayable",
      "type": "function"
    },
    {
      "inputs": [
        {
          "internalType": "string",
          "name": "description",
          "type": "string"
        }
      ],
      "name": "submitProposal",
      "outputs": [
        {
          "internalType": "uint256",
          "name": "",
          "type": "uint256"
        }
      ],
      "stateMutability": "nonpayable",
      "type": "function"
    },
    {
      "inputs": [
        {
          "internalType": "uint256",
          "name": "id",
          "type": "uint256"
        },
        {
          "internalType": "bool",
          "name": "inSupport",
          "type": "bool"
        }
      ],
      "name": "vote",
      "outputs": [],
      "stateMutability": "nonpayable",
      "type": "function"
    },
    {
      "inputs": [
        {
          "internalType": "uint256",
          "name": "id",
          "type": "uint256"
        }
      ],
      "name": "executeProposal",
      "outputs": [],
      "stateMutability": "nonpayable",
      "type": "function"
    },
    {
      "inputs": [
        {
          "internalType": "address",
          "name": "member",
          "type": "address"
        }
      ],
      "name": "addMemberLitAction",
      "outputs": [],
      "stateMutability": "nonpayable",
      "type": "function"
    }
  ],
  "bytecode": "0x60806040523480156200001157600080fd5b5060405162001d2838038062001d2883398181016040528101906200003791906200016d565b826000806101000a81548173ffffffffffffffffffffffffffffffffffffffff021916908373ffffffffffffffffffffffffffffffffffffffff16021790555081600160006101000a81548173ffffffffffffffffffffffffffffffffffffffff021916908373ffffffffffffffffffffffffffffffffffffffff16021790555080600281905550505050620001c9565b600080fd5b600073ffffffffffffffffffffffffffffffffffffffff82169050919050565b6000620000fa82620000cd565b9050919050565b6200010c81620000ed565b81146200011857600080fd5b50565b6000815190506200012c8162000101565b92915050565b6000819050919050565b620001478162000132565b81146200015357600080fd5b50565b60008151905062000167816200013c565b92915050565b600080600060608486031215620001895762000188620000c8565b5b600062000199868287016200011b565b9350506020620001ac868287016200011b565b9250506040620001bf8682870162000156565b9150509250925092565b611b4f80620001d96000396000f3fe608060405234801561001057600080fd5b50600436106100a95760003560e01c8063373d6d5e11610071578063373d6d5e146101685780639d4c545114610198578063c9d27afe146101b6578063ca6d56dc146101d2578063f851a440146101ee578063fc0c546a1461020c576100a9565b8063013cf08b146100ae57806308ae4b0c146100e25780630c0512e9146101125780630d61b519146101305780632b02b5cc1461014c575b600080fd5b6100c860048036038101906100c39190610e1d565b61022a565b6040516100d9959493929190610f45565b60405180910390f35b6100fc60048036038101906100f79190610fcb565b610315565b6040516101099190610ff8565b60405180910390f35b61011a610335565b6040516101279190611013565b60405180910390f35b61014a60048036038101906101459190610e1d565b61033b565b005b61016660048036038101906101619190610fcb565b610545565b005b610182600480360381019061017d9190611093565b61069e565b60405161018f9190611013565b60405180910390f35b6101a0610840565b6040516101ad9190611013565b60405180910390f35b6101d060048036038101906101cb919061110c565b610846565b005b6101ec60048036038101906101e79190610fcb565b610afa565b005b6101f6610d93565b604051610203919061114c565b60405180910390f35b610214610db7565b604051610221919061114c565b60405180910390f35b60046020528060005260406000206000915090508060000160009054906101000a900473ffffffffffffffffffffffffffffffffffffffff169080600101805461027390611196565b80601f016020809104026020016040519081016040528092919081815260200182805461029f90611196565b80156102ec5780601f106102c1576101008083540402835291602001916102ec565b820191906000526020600020905b8154815290600101906020018083116102cf57829003601f168201915b5050505050908060020154908060030154908060040160009054906101000a900460ff16905085565b60036020528060005260406000206000915054906101000a900460ff1681565b60055481565b60046000828152602001908152602001600020600301546004600083815260200190815260200160002060020154116103a9576040517f08c379a00000000000000000000000000000000000000000000000000000000081526004016103a090611213565b60405180910390fd5b6004600082815260200190815260200160002060040160009054906101000a900460ff161561040d576040517f08c379a0000000000000000000000000000000000000000000000000000000008152600401610404906112a5565b60405180910390fd5b60016004600083815260200190815260200160002060040160006101000a81548160ff021916908315150217905550600160009054906101000a900473ffffffffffffffffffffffffffffffffffffffff1673ffffffffffffffffffffffffffffffffffffffff1663a9059cbb6004600084815260200190815260200160002060000160009054906101000a900473ffffffffffffffffffffffffffffffffffffffff166002546040518363ffffffff1660e01b81526004016104d19291906112c5565b6020604051808303816000875af11580156104f0573d6000803e3d6000fd5b505050506040513d601f19601f820116820180604052508101906105149190611303565b50807f712ae1383f79ac853f8d882153778e0260ef8f03b504e2866e0593e04d2b291f60405160405180910390a250565b600081604051602401610558919061114c565b6040516020818303038152906040527fca6d56dc000000000000000000000000000000000000000000000000000000007bffffffffffffffffffffffffffffffffffffffffffffffffffffffff19166020820180517bffffffffffffffffffffffffffffffffffffffffffffffffffffffff838183161783525050505090506000336040516020016105ea919061114c565b6040516020818303038152906040529050600073b17d999e840d9b4d4a4e0f87b912c4cb449d970990508073ffffffffffffffffffffffffffffffffffffffff1663aa1ac56330600086866040518563ffffffff1660e01b815260040161065494939291906113ca565b6020604051808303816000875af1158015610673573d6000803e3d6000fd5b505050506040513d601f19601f820116820180604052508101906106979190611453565b5050505050565b6000600360003373ffffffffffffffffffffffffffffffffffffffff1673ffffffffffffffffffffffffffffffffffffffff16815260200190815260200160002060009054906101000a900460ff1661072c576040517f08c379a0000000000000000000000000000000000000000000000000000000008152600401610723906114f2565b60405180910390fd5b600060056000815461073d90611541565b91905081905590506000600460008381526020019081526020016000209050338160000160006101000a81548173ffffffffffffffffffffffffffffffffffffffff021916908373ffffffffffffffffffffffffffffffffffffffff16021790555084848260010191826107b2929190611765565b50600081600201819055506000816003018190555060008160040160006101000a81548160ff0219169083151502179055503373ffffffffffffffffffffffffffffffffffffffff16827fba63161e1c7e096aaf63cb63b137eeea26b870df0007c6e2ad029bae55d65179878760405161082d929190611871565b60405180910390a3819250505092915050565b60025481565b600360003373ffffffffffffffffffffffffffffffffffffffff1673ffffffffffffffffffffffffffffffffffffffff16815260200190815260200160002060009054906101000a900460ff166108d2576040517f08c379a00000000000000000000000000000000000000000000000000000000081526004016108c9906118e1565b60405180910390fd5b6004600083815260200190815260200160002060050160003373ffffffffffffffffffffffffffffffffffffffff1673ffffffffffffffffffffffffffffffffffffffff16815260200190815260200160002060009054906101000a900460ff1615610973576040517f08c379a000000000000000000000000000000000000000000000000000000000815260040161096a90611973565b60405180910390fd5b6004600083815260200190815260200160002060040160009054906101000a900460ff16156109d7576040517f08c379a00000000000000000000000000000000000000000000000000000000081526004016109ce906112a5565b60405180910390fd5b60016004600084815260200190815260200160002060050160003373ffffffffffffffffffffffffffffffffffffffff1673ffffffffffffffffffffffffffffffffffffffff16815260200190815260200160002060006101000a81548160ff0219169083151502179055508015610a7a57600460008381526020019081526020016000206002016000815480929190610a7090611541565b9190505550610aa7565b600460008381526020019081526020016000206003016000815480929190610aa190611541565b91905055505b3373ffffffffffffffffffffffffffffffffffffffff16827ff2913dbe661ee2acc4a046d8fbcdc792373bda34c41c6086484b5345e5785e5f83604051610aee9190610ff8565b60405180910390a35050565b60008054906101000a900473ffffffffffffffffffffffffffffffffffffffff1673ffffffffffffffffffffffffffffffffffffffff163373ffffffffffffffffffffffffffffffffffffffff1614610b88576040517f08c379a0000000000000000000000000000000000000000000000000000000008152600401610b7f906119df565b60405180910390fd5b600360008273ffffffffffffffffffffffffffffffffffffffff1673ffffffffffffffffffffffffffffffffffffffff16815260200190815260200160002060009054906101000a900460ff1615610c15576040517f08c379a0000000000000000000000000000000000000000000000000000000008152600401610c0c90611a4b565b60405180910390fd5b600254600160009054906101000a900473ffffffffffffffffffffffffffffffffffffffff1673ffffffffffffffffffffffffffffffffffffffff166370a08231836040518263ffffffff1660e01b8152600401610c73919061114c565b602060405180830381865afa158015610c90573d6000803e3d6000fd5b505050506040513d601f19601f82011682018060405250810190610cb49190611a80565b1015610cf5576040517f08c379a0000000000000000000000000000000000000000000000000000000008152600401610cec90611af9565b60405180910390fd5b6001600360008373ffffffffffffffffffffffffffffffffffffffff1673ffffffffffffffffffffffffffffffffffffffff16815260200190815260200160002060006101000a81548160ff0219169083151502179055508073ffffffffffffffffffffffffffffffffffffffff167fb251eb052afc73ffd02ffe85ad79990a8b3fed60d76dbc2fa2fdd7123dffd91460405160405180910390a250565b60008054906101000a900473ffffffffffffffffffffffffffffffffffffffff1681565b600160009054906101000a900473ffffffffffffffffffffffffffffffffffffffff1681565b600080fd5b600080fd5b6000819050919050565b610dfa81610de7565b8114610e0557600080fd5b50565b600081359050610e1781610df1565b92915050565b600060208284031215610e3357610e32610ddd565b5b6000610e4184828501610e08565b91505092915050565b600073ffffffffffffffffffffffffffffffffffffffff82169050919050565b6000610e7582610e4a565b9050919050565b610e8581610e6a565b82525050565b600081519050919050565b600082825260208201905092915050565b60005b83811015610ec5578082015181840152602081019050610eaa565b60008484015250505050565b6000601f19601f8301169050919050565b6000610eed82610e8b565b610ef78185610e96565b9350610f07818560208601610ea7565b610f1081610ed1565b840191505092915050565b610f2481610de7565b82525050565b60008115159050919050565b610f3f81610f2a565b82525050565b600060a082019050610f5a6000830188610e7c565b8181036020830152610f6c8187610ee2565b9050610f7b6040830186610f1b565b610f886060830185610f1b565b610f956080830184610f36565b9695505050505050565b610fa881610e6a565b8114610fb357600080fd5b50565b600081359050610fc581610f9f565b92915050565b600060208284031215610fe157610fe0610ddd565b5b6000610fef84828501610fb6565b91505092915050565b600060208201905061100d6000830184610f36565b92915050565b60006020820190506110286000830184610f1b565b92915050565b600080fd5b600080fd5b600080fd5b60008083601f8401126110535761105261102e565b5b8235905067ffffffffffffffff8111156110705761106f611033565b5b60208301915083600182028301111561108c5761108b611038565b5b9250929050565b600080602083850312156110aa576110a9610ddd565b5b600083013567ffffffffffffffff8111156110c8576110c7610de2565b5b6110d48582860161103d565b92509250509250929050565b6110e981610f2a565b81146110f457600080fd5b50565b600081359050611106816110e0565b92915050565b6000806040838503121561112357611122610ddd565b5b600061113185828601610e08565b9250506020611142858286016110f7565b9150509250929050565b60006020820190506111616000830184610e7c565b92915050565b7f4e487b7100000000000000000000000000000000000000000000000000000000600052602260045260246000fd5b600060028204905060018216806111ae57607f821691505b6020821081036111c1576111c0611167565b5b50919050565b7f50726f706f73616c20776173206e6f7420617070726f76656400000000000000600082015250565b60006111fd601983610e96565b9150611208826111c7565b602082019050919050565b6000602082019050818103600083015261122c816111f0565b9050919050565b7f50726f706f73616c2068617320616c7265616479206265656e2065786563757460008201527f6564000000000000000000000000000000000000000000000000000000000000602082015250565b600061128f602283610e96565b915061129a82611233565b604082019050919050565b600060208201905081810360008301526112be81611282565b9050919050565b60006040820190506112da6000830185610e7c565b6112e76020830184610f1b565b9392505050565b6000815190506112fd816110e0565b92915050565b60006020828403121561131957611318610ddd565b5b6000611327848285016112ee565b91505092915050565b6000819050919050565b6000819050919050565b600061135f61135a61135584611330565b61133a565b610de7565b9050919050565b61136f81611344565b82525050565b600081519050919050565b600082825260208201905092915050565b600061139c82611375565b6113a68185611380565b93506113b6818560208601610ea7565b6113bf81610ed1565b840191505092915050565b60006080820190506113df6000830187610e7c565b6113ec6020830186611366565b81810360408301526113fe8185611391565b905081810360608301526114128184611391565b905095945050505050565b6000819050919050565b6114308161141d565b811461143b57600080fd5b50565b60008151905061144d81611427565b92915050565b60006020828403121561146957611468610ddd565b5b60006114778482850161143e565b91505092915050565b7f4f6e6c79206d656d626572732063616e207375626d69742070726f706f73616c60008201527f7300000000000000000000000000000000000000000000000000000000000000602082015250565b60006114dc602183610e96565b91506114e782611480565b604082019050919050565b6000602082019050818103600083015261150b816114cf565b9050919050565b7f4e487b7100000000000000000000000000000000000000000000000000000000600052601160045260246000fd5b600061154c82610de7565b91507fffffffffffffffffffffffffffffffffffffffffffffffffffffffffffffffff820361157e5761157d611512565b5b600182019050919050565b600082905092915050565b7f4e487b7100000000000000000000000000000000000000000000000000000000600052604160045260246000fd5b60008190508160005260206000209050919050565b60006020601f8301049050919050565b600082821b905092915050565b6000600883026116257fffffffffffffffffffffffffffffffffffffffffffffffffffffffffffffffff826115e8565b61162f86836115e8565b95508019841693508086168417925050509392505050565b600061166261165d61165884610de7565b61133a565b610de7565b9050919050565b6000819050919050565b61167c83611647565b61169061168882611669565b8484546115f5565b825550505050565b600090565b6116a5611698565b6116b0818484611673565b505050565b5b818110156116d4576116c960008261169d565b6001810190506116b6565b5050565b601f821115611719576116ea816115c3565b6116f3846115d8565b81016020851015611702578190505b61171661170e856115d8565b8301826116b5565b50505b505050565b600082821c905092915050565b600061173c6000198460080261171e565b1980831691505092915050565b6000611755838361172b565b9150826002028217905092915050565b61176f8383611589565b67ffffffffffffffff81111561178857611787611594565b5b6117928254611196565b61179d8282856116d8565b6000601f8311600181146117cc57600084156117ba578287013590505b6117c48582611749565b86555061182c565b601f1984166117da866115c3565b60005b82811015611802578489013582556001820191506020850194506020810190506117dd565b8683101561181f578489013561181b601f89168261172b565b8355505b6001600288020188555050505b50505050505050565b82818337600083830152505050565b60006118508385610e96565b935061185d838584611835565b61186683610ed1565b840190509392505050565b6000602082019050818103600083015261188c818486611844565b90509392505050565b7f4f6e6c79206d656d626572732063616e20766f74650000000000000000000000600082015250565b60006118cb601583610e96565b91506118d682611895565b602082019050919050565b600060208201905081810360008301526118fa816118be565b9050919050565b7f43616e6e6f7420766f7465207477696365206f6e2073616d652070726f706f7360008201527f616c000000000000000000000000000000000000000000000000000000000000602082015250565b600061195d602283610e96565b915061196882611901565b604082019050919050565b6000602082019050818103600083015261198c81611950565b9050919050565b7f4f6e6c792061646d696e2063616e20616464206d656d62657273000000000000600082015250565b60006119c9601a83610e96565b91506119d482611993565b602082019050919050565b600060208201905081810360008301526119f8816119bc565b9050919050565b7f4d656d62657220616c7265616479206578697374730000000000000000000000600082015250565b6000611a35601583610e96565b9150611a40826119ff565b602082019050919050565b60006020820190508181036000830152611a6481611a28565b9050919050565b600081519050611a7a81610df1565b92915050565b600060208284031215611a9657611a95610ddd565b5b6000611aa484828501611a6b565b91505092915050565b7f496e73756666696369656e7420746f6b656e7320746f206a6f696e2044414f00600082015250565b6000611ae3601f83610e96565b9150611aee82611aad565b602082019050919050565b60006020820190508181036000830152611b1281611ad6565b905091905056fea26469706673582212202c68c9c06bf8a13931dc147fe8cf6017d626eb7d6c545b97e3037269f1ab1b9664736f6c63430008130033",
  "immutableReferences": {},
  "source": "// SPDX-License-Identifier: MIT\r\n\r\npragma solidity ^0.8.0;\r\n\r\ncontract DAO {\r\n    address public admin;\r\n    address public token;\r\n    uint256 public minTokens;\r\n    mapping(address => bool) public members;\r\n    mapping(uint256 => Proposal) public proposals;\r\n    uint256 public proposalCounter;\r\n\r\n    struct Proposal {\r\n        address proposer;\r\n        string description;\r\n        uint256 votesFor;\r\n        uint256 votesAgainst;\r\n        bool executed;\r\n        mapping(address => bool) voters;\r\n    }\r\n\r\n    event MemberAdded(address indexed member);\r\n    event ProposalSubmitted(uint256 indexed id, address indexed proposer, string description);\r\n    event Voted(uint256 indexed id, address indexed voter, bool inSupport);\r\n    event ProposalExecuted(uint256 indexed id);\r\n\r\n    constructor(address _admin, address _token, uint256 _minTokens) {\r\n        admin = _admin;\r\n        token = _token;\r\n        minTokens = _minTokens;\r\n    }\r\n\r\n    function addMember(address member) external {\r\n        require(msg.sender == admin, \"Only admin can add members\");\r\n        require(!members[member], \"Member already exists\");\r\n        require(IToken(token).balanceOf(member) >= minTokens, \"Insufficient tokens to join DAO\");\r\n        members[member] = true;\r\n        emit MemberAdded(member);\r\n    }\r\n\r\n    function submitProposal(string calldata description) external returns (uint256) {\r\n        require(members[msg.sender], \"Only members can submit proposals\");\r\n        uint256 id = ++proposalCounter;\r\n        Proposal storage newProposal = proposals[id];\r\n        newProposal.proposer = msg.sender;\r\n        newProposal.description = description;\r\n        newProposal.votesFor = 0;\r\n        newProposal.votesAgainst = 0;\r\n        newProposal.executed = false;\r\n        emit ProposalSubmitted(id, msg.sender, description);\r\n        return id;\r\n    }\r\n\r\n    function vote(uint256 id, bool inSupport) external {\r\n        require(members[msg.sender], \"Only members can vote\");\r\n        require(!proposals[id].voters[msg.sender], \"Cannot vote twice on same proposal\");\r\n        require(!proposals[id].executed, \"Proposal has already been executed\");\r\n\r\n        proposals[id].voters[msg.sender] = true;\r\n        if (inSupport) {\r\n            proposals[id].votesFor++;\r\n        } else {\r\n            proposals[id].votesAgainst++;\r\n        }\r\n        emit Voted(id, msg.sender, inSupport);\r\n    }\r\n\r\n    function executeProposal(uint256 id) external {\r\n        require(proposals[id].votesFor > proposals[id].votesAgainst, \"Proposal was not approved\");\r\n        require(!proposals[id].executed, \"Proposal has already been executed\");\r\n\r\n        proposals[id].executed = true;\r\n        IToken(token).transfer(proposals[id].proposer, minTokens);\r\n        emit ProposalExecuted(id);\r\n    }\r\n\r\n    // LitAction to automate adding a new member to the DAO\r\n    function addMemberLitAction(address member) external {\r\n        bytes memory data = abi.encodeWithSignature(\"addMember(address)\", member);\r\n        bytes memory context = abi.encode(msg.sender);\r\n        ILit lit = ILit(0xB17D999E840D9B4d4a4E0F87B912C4cb449d9709);\r\n        lit.submitTransaction(address(this), 0, data, context);\r\n    }\r\n}\r\n\r\ninterface IToken {\r\n    function balanceOf(address account) external view returns (uint256);\r\n    function transfer(address recipient, uint256 amount) external returns (bool);\r\n}\r\n\r\ninterface ILit {\r\n    function submitTransaction(address to, uint256 value, bytes calldata data, bytes calldata context) \r\n    external returns (bytes32);\r\n}\r\n",
  "sourcePath": "C:\\Users\\u\\source\\hackathon\\DAO_lit\\contracts\\MyContract.sol",
  "compiler": {
    "name": "solc",
    "version": "0.8.19+commit.7dd6d404.Emscripten.clang"
  },
  "schemaVersion": "3.4.13",
  "updatedAt": "2023-04-18T08:24:12.555Z",
  "devdoc": {
    "kind": "dev",
    "methods": {},
    "version": 1
  },
  "userdoc": {
    "kind": "user",
    "methods": {},
    "version": 1
  }
}